S00D00004F435432332E73726563CC
S11300000C942A000C9447000C9447000C9447006D
S11300100C9447000C9447000C9447000C94470040
S11300200C9447000C9447000C9447000C94470030
S11300300C9447000C9447000C9447000C94470020
S11300400C9447000C9447000C9447000C94470010
S11300500C94470011241FBECFE5D8E0DEBFCDBF0E
S113006010E0A0E6B0E0ECECFFE002C005900D92D9
S1130070AC3BB107D9F720E0ACEBB0E001C01D9276
S1130080A23DB207E1F70E94ED020C94E4070C9440
S11300900000EF92FF920F931F93CF93DF93C0E77B
S11300A0D0E00F2EF4E7EF2EF0E0FF2EF02D8E01BE
S11300B060E089910E94AD0361E0F80180810E94B3
S11300C0F802CE15DF0599F7C4E7D0E00F2EF8E764
S11300D0EF2EF0E0FF2EF02D8E0161E089910E9459
S11300E0AD0361E0F80180810E94F802CE15DF05BE
S11300F099F7DF91CF911F910F91FF90EF900895A1
S11301006F927F928F929F92AF92BF92CF92DF9223
S1130110EF92FF920F931F93CF93DF9304E710E0C6
S1130120C12CD12C4601580160E0F80180810E9465
S1130130F802C0E7D0E0612C712C730189910E9410
S11301407A03811114C0E301C059DF4F88810E94F2
S11301507A038823D9F3C401880F991F880F991F44
S1130160805A9F4FFC01EE0DFF1D808116C0FFEFEA
S11301706F1A7F0A84E068167104F9F60F5F1F4F47
S113018061E0F50180810E94F802FFEFCF1ADF0AD7
S113019084E0C816D10431F680E0DF91CF911F913D
S11301A00F91FF90EF90DF90CF90BF90AF909F9012
S11301B08F907F906F900895CF93C82F60E089E06F
S11301C00E94F80280E00E942F048F709C2F907F81
S11301D0682F692B80E00E94410460E08BE00E945C
S11301E0F8028FE891E00197F1F700C0000061E0A8
S11301F08BE00E94F8028FE19EE40197F1F700C0C2
S1130200000080E00E942F048F7090E1C99F90014C
S11302101124682F622B80E00E94410460E08BE08F
S11302200E94F8028FE891E00197F1F700C0000006
S113023061E08BE00E94F8028FE39FE10197F1F700
S113024000C00000CF91089560E08AE00E94F802A7
S113025061E08BE00E94F8022FEF89EF90E02150DB
S113026080409040E1F700C0000083E30E94DC007E
S113027082E30E94DC0088E20E94DC0086E00E94A7
S1130280DC008CE00E94DC000895CF93C82F61E06D
S113029089E00E94F80280E00E942F048F709C2F56
S11302A0907F682F692B80E00E94410460E08BE01E
S11302B00E94F8028FE891E00197F1F700C0000076
S11302C061E08BE00E94F8028FE19EE40197F1F770
S11302D000C0000080E00E942F048F7090E1C99F4D
S11302E090011124682F622B80E00E94410460E099
S11302F08BE00E94F8028FE891E00197F1F700C0CB
S1130300000061E08BE00E94F8028FE39FE1019717
S1130310F1F700C00000CF9108950F931F93CF937E
S1130320FC018081882359F08F01C0E00E944501BF
S1130330CF5FF801EC0FF11D80818111F7CFCF91D0
S11303401F910F91089581E00E94DC0008950F939E
S11303501F93CF93DF93CDB7DEB760970FB6F894B2
S1130360DEBF0FBECDBF9F938F9388EB90E09F932A
S11303708F938E010F5F1F4F1F930F930E94FA04F8
S1130380C8010E948D010F900F900F900F900F9055
S11303900F9060960FB6F894DEBF0FBECDBFDF910D
S11303A0CF911F910F9108958F929F92AF92BF9218
S11303B0CF92DF92EF92FF920F931F93CF93DF932D
S11303C0CDB7DEB76E970FB6F894DEBF0FBECDBFC4
S11303D0C090D000D090D1001C141D040CF09DC01E
S11303E08E010B5E1F4FAE014F5F5F4F7A01D80144
S11303F060E070E040E050E0812C912C30C05C0162
S1130400AA0CBB1C880F991F880F991F880F991F6E
S11304108A0D9B1D30E020533109820F931F4F5FDB
S11304205F4F219130ED320F3A3048F302C0882DEE
S1130430992DF701819391937F01FB013196822FCE
S11304408D7F8D3221F086ED820F823018F42C934B
S11304504F5F5F4F11964C155D057CF4BF01FA01A7
S1130460E454FF4F208180ED820F8A3000F7FA01B7
S1130470E354FF4F882D992DC2CFE980FA801616D8
S11304801706ACF5FE01339625E130E02C0F3D1F35
S1130490260F371FD8018D918D018B3249F018F446
S11304A08A3281F020C08D3241F08F32B1F01BC00E
S11304B080819181E80EF91E16C080819181E81A2D
S11304C0F90A11C080819181A701489F7001499F59
S11304D0F00C589FF00C112406C060817181C70193
S11304E00E94D2047B0132962017310799F60E94AC
S11304F0A301C7010E94A7011092D1001092D0005D
S11305001092BC005FEF83ED90E351508040904027
S1130510E1F700C000000E94A3016E960FB6F894A4
S1130520DEBF0FBECDBFDF91CF911F910F91FF9022
S1130530EF90DF90CF90BF90AF909F908F900895F1
S113054090ED980F9A30C8F42091D0003091D100EA
S1130550233131050CF040C0F901E454FF4F80838E
S11305602F5F3F4F3093D1002093D000F901E45422
S1130570FF4F10820E9445010895982F9D7F9D3260
S113058021F096ED980F9230C0F42091D000309174
S1130590D1002331310504F5F901E454FF4F808380
S11305A02F5F3F4F3093D1002093D000F901E454E2
S11305B0FF4F10820E9445010895833449F410923C
S11305C0BC001092D1001092D0000E94A3010895A3
S11305D08D3311F40E94D40108950E9451040E94A5
S11305E024010E9449000E9480000E94A002FBCFC7
S11305F0982F9770869586958695813021F130F0F5
S11306008230F1F1833009F458C00895613069F4FF
S11306104BB321E030E0B90102C0660F771F9A9511
S1130620E2F7CB01842B8BBB08954BB321E030E080
S1130630B90102C0660F771F9A95E2F7CB01809546
S113064084238BBB0895613069F448B321E030E022
S1130650B90102C0660F771F9A95E2F7CB01842B8C
S113066088BB089548B321E030E0B90102C0660FA9
S1130670771F9A95E2F7CB018095842388BB089570
S1130680613069F445B321E030E0B90102C0660F7E
S1130690771F9A95E2F7CB01842B85BB089545B368
S11306A021E030E0B90102C0660F771F9A95E2F7A6
S11306B0CB018095842385BB0895613069F442B3EE
S11306C021E030E0B90102C0660F771F9A95E2F786
S11306D0CB01842B82BB089542B321E030E0B90101
S11306E002C0660F771F9A95E2F7CB0180958423A9
S11306F082BB0895282F277086958695869581302C
S113070079F028F08230A9F08330E1F024C089B375
S113071090E002C0959587952A95E2F78170089537
S113072086B390E002C0959587952A95E2F781708B
S1130730089583B390E002C0959587952A95E2F7D2
S11307408170089580B390E002C0959587952A95AD
S1130750E2F78170089580E00895982F9770869548
S113076086958695813021F130F08230F1F1833025
S113077009F458C00895613069F44AB321E030E0C7
S1130780B90102C0660F771F9A95E2F7CB01842B5B
S11307908ABB08954AB321E030E0B90102C0660F74
S11307A0771F9A95E2F7CB01809584238ABB08953D
S11307B0613069F447B321E030E0B90102C0660F4B
S11307C0771F9A95E2F7CB01842B87BB089547B333
S11307D021E030E0B90102C0660F771F9A95E2F775
S11307E0CB018095842387BB0895613069F444B3B9
S11307F021E030E0B90102C0660F771F9A95E2F755
S1130800CB01842B84BB089544B321E030E0B901CB
S113081002C0660F771F9A95E2F7CB018095842377
S113082084BB0895613069F441B321E030E0B9013B
S113083002C0660F771F9A95E2F7CB01842B81BB28
S1130840089541B321E030E0B90102C0660F771F7B
S11308509A95E2F7CB018095842381BB089581307A
S113086041F028F0823039F0833039F008C08BB37E
S1130870089588B3089585B3089582B3089580E0F8
S11308800895813041F028F0823039F0833039F016
S113089008956BBB089568BB089565BB089562BB5A
S11308A00895E8E7F0E080E041E050E0282F277069
S11308B0982F969596959695913009F130F092304F
S11308C0C1F1933009F44FC067C09081913059F45D
S11308D09AB3BA0102C0660F771F2A95E2F79B010B
S11308E0292B2ABB59C03AB3BA0102C0660F771F3D
S11308F02A95E2F7962F909593239ABB4DC0908149
S1130900913059F497B3BA0102C0660F771F2A9544
S1130910E2F79B01292B27BB3FC037B3BA0102C0C2
S1130920660F771F2A95E2F7962F9095932397BB2E
S113093033C09081913059F494B3BA0102C0660F68
S1130940771F2A95E2F79B01292B24BB25C034B3DA
S1130950BA0102C0660F771F2A95E2F7962F909589
S1130960932394BB19C09081913059F491B3BA0187
S113097002C0660F771F2A95E2F79B01292B21BB42
S11309800BC031B3BA0102C0660F771F2A95E2F794
S1130990962F9095932391BB8F5F3296803209F006
S11309A085CF089597FB072E16F4009407D077FDA2
S11309B009D00E94E60407FC05D03EF49095819589
S11309C09F4F0895709561957F4F0895AA1BBB1B97
S11309D051E107C0AA1FBB1FA617B70710F0A61B3B
S11309E0B70B881F991F5A95A9F780959095BC015C
S11309F0CD010895AEE0B0E0E0E0F5E00C94BB0773
S1130A000D891E8986E08C831A8309838FEF9FE703
S1130A109E838D83AE01475E5F4F6F89788DCE01D3
S1130A2001960E941C05EF81F885E00FF11F1082EA
S1130A302E96E4E00C94D707ABE0B0E0E2E2F5E0F8
S1130A400C94AD076C017B018A01FC0117821682AC
S1130A50838181FFCCC1CE0101963C01F6019381D3
S1130A60F70193FD859193FF81917F01882309F418
S1130A70BAC1853239F493FD859193FF81917F0149
S1130A80853229F4B60190E00E941307E7CF912C38
S1130A90212C312CFFE1F315D8F08B3279F038F4A6
S1130AA0803279F08332A1F4232D20611DC08D3270
S1130AB061F0803369F4232D216016C0832D826098
S1130AC0382EE32DE4603E2E2AC0F32DF8601DC0BD
S1130AD037FC2DC020ED280F2A3040F08E32B9F4B7
S1130AE036FC81C1232D2064322E19C036FE06C087
S1130AF08AE0989E200D1124922E11C0EAE02E9EC9
S1130B00200D1124222EF32DF0623F2E08C08C36C6
S1130B1021F4832D8068382E02C0883641F4F70111
S1130B2093FD859193FF81917F018111B3CF982F1C
S1130B309F7D9554933028F40C5F1F4F9FE3998356
S1130B400DC0833631F0833771F0833509F059C015
S1130B5021C0F801808189830E5F1F4F882483940C
S1130B60912C530113C02801F2E04F0E511CF801DF
S1130B70A080B18036FE03C0692D70E002C06FEF23
S1130B807FEFC5010E9408074C018201F32DFF7716
S1130B903F2E16C0280122E0420E511CF801A0800D
S1130BA0B18036FE03C0692D70E002C06FEF7FEFA5
S1130BB0C5010E94FD064C01F32DF0683F2E820111
S1130BC033FC1BC0822D90E088169906B0F4B60160
S1130BD080E290E00E9413072A94F4CFF50137FCD9
S1130BE0859137FE81915F01B60190E00E94130761
S1130BF021102A9421E0821A91088114910471F73A
S1130C00E8C0843611F0893641F5F80137FE07C093
S1130C1060817181828193810C5F1F4F08C0608164
S1130C207181072E000C880B990B0E5F1F4FF32D5B
S1130C30FF763F2E97FF09C090958095709561953A
S1130C407F4F8F4F9F4FF0683F2E2AE030E0A30183
S1130C500E944F07882E861845C0853731F4232D0E
S1130C602F7EB22E2AE030E025C0932D997FB92E35
S1130C708F36C1F018F4883579F0B5C0803719F093
S1130C80883721F0B0C0E92FE061BE2EB4FE0DC05C
S1130C90FB2DF460BF2E09C034FE0AC0292F266044
S1130CA0B22E06C028E030E005C020E130E002C0EA
S1130CB020E132E0F801B7FE07C0608171818281D2
S1130CC093810C5F1F4F06C06081718180E090E0CA
S1130CD00E5F1F4FA3010E944F07882E8618FB2D1D
S1130CE0FF773F2E36FE0DC0232D2E7FA22E8914B2
S1130CF058F434FE0BC032FC09C0832D8E7EA82E1E
S1130D0005C0B82CA32C03C0B82C01C0B92CA4FE78
S1130D100FC0FE01E80DF11D8081803321F49A2D6E
S1130D20997EA92E09C0A2FE06C0B394B39404C050
S1130D308A2D867809F0B394A3FC11C0A0FE06C0E6
S1130D40B21488F4280C922C9B180EC0B21460F4D0
S1130D50B60180E290E00E941307B394F7CFB21477
S1130D6018F42B1802C0982C212CA4FE10C0B60134
S1130D7080E390E00E941307A2FE17C0A1FC03C009
S1130D8088E790E002C088E590E0B6010CC08A2DA7
S1130D90867859F0A1FE02C08BE201C080E2A7FC74
S1130DA08DE2B60190E00E941307891438F4B6016D
S1130DB080E390E00E9413079A94F7CF8A94F3019A
S1130DC0E80DF11D8081B60190E00E9413078110A7
S1130DD0F5CF222009F442CEB60180E290E00E94D1
S1130DE013072A94F6CFF6018681978102C08FEF0C
S1130DF09FEF2B96E2E10C94C907FC01059061502A
S1130E0070400110D8F7809590958E0F9F1F08951C
S1130E10FC016150704001900110D8F780959095C5
S1130E208E0F9F1F08950F931F93CF93DF93FB01A2
S1130E30238121FD03C08FEF9FEF2CC022FF16C03A
S1130E4046815781248135814217530744F4A08198
S1130E50B1819D012F5F3F4F318320838C93268185
S1130E6037812F5F3F4F3783268314C08B01EC01FA
S1130E70FB010084F185E02D0995892BE1F6D80169
S1130E8016968D919C911797019617969C938E9325
S1130E901697CE01DF91CF911F910F910895FA011A
S1130EA0AA27283051F1203181F1E8946F936E7FA5
S1130EB06E5F7F4F8F4F9F4FAF4FB1E03ED0B4E096
S1130EC03CD0670F781F891F9A1FA11D680F791FD7
S1130ED08A1F911DA11D6A0F711D811D911DA11DE8
S1130EE020D009F468943F912AE0269F11243019F8
S1130EF0305D3193DEF6CF010895462F4770405D93
S1130F004193B3E00FD0C9F7F6CF462F4F70405D41
S1130F104A3318F0495D31FD4052419302D0A9F79C
S1130F20EACFB4E0A6959795879577956795BA9596
S1130F30C9F700976105710508959B01AC010A2E5C
S1130F4006945795479537952795BA95C9F7620F33
S1130F50731F841F951FA01D08952F923F924F92D7
S1130F605F926F927F928F929F92AF92BF92CF9235
S1130F70DF92EF92FF920F931F93CF93DF93CDB73E
S1130F80DEB7CA1BDB0B0FB6F894DEBF0FBECDBFB6
S1130F9009942A88398848885F846E847D848C8487
S1130FA09B84AA84B984C884DF80EE80FD800C8190
S1130FB01B81AA81B981CE0FD11D0FB6F894DEBF73
S10F0FC00FBECDBFED010895F894FFCFE3
S1130FCC3738392F3435362A3132332D43303D2BD3
S1130FDC1D1F101118191B1C010101010101010134
S1130FEC01010101010101010101010101010101E1
S1130FFC01010101010101010101010101010101D1
S113100C01010101010101010101010101010101C0
S10F101C01010101010101012564000033
S9030000FC
